:100000000C942A000C9434000C9434000C943400AA
:100010000C9434000C9434000C9434000C94340090
:100020000C9434000C9434000C9434000C94340080
:100030000C9434000C9434000C9434000C94340070
:100040000C9434000C9434000C9434000C94340060
:100050000C94340011241FBECFE5D8E0DEBFCDBF25
:100060000E9436000C94A3000C9400000F931F9381
:10007000CF93DF938FE08ABB1BBA40E050E060E093
:1000800070E0C6E0D0E0A1E0B0E008EC10E001C014
:10009000BA012BB34430510514F4CB0103C0CE0197
:1000A000841B950BFD0102C0EE0FFF1F8A95E2F73E
:1000B000CF0130E0822B932B8BBB80E197E2F801DC
:1000C0003197F1F70197D9F72BB3443051051CF064
:1000D000BE01641B750BCD0102C0880F991F6A9584
:1000E000E2F78095909530E0822393238BBB4F5F9E
:1000F0005F4F4730510564F240E050E060E070E04F
:10010000C8CF9C0102C0359527956A95E2F721700A
:100110003070C901089521E030E002C0220F331F82
:100120006A95E2F7282B392BC901089521E030E0C8
:1001300002C0220F331F6A95E2F7209530952823DD
:0A0140003923C9010895F894FFCF98
:00000001FF
